:020000040800F2
:1000000000280020F9120008891100089111000849
:1000100099110008A1110008A911000800000000B2
:10002000000000000000000000000000B111000806
:10003000BD11000800000000C9110008D51100081A
:100040004113000841130008411300084113000840
:100050004113000841130008411300084113000830
:100060004113000841130008411300084113000820
:100070004113000841130008411300084113000810
:100080004113000841130008411300084113000800
:1000900041130008411300084113000841130008F0
:1000A00041130008411300084113000841130008E0
:1000B000E11100084113000800000000411300088E
:1000C0004113000800000000000000004113000878
:1000D0000000000041130008411300080000000068
:1000E00041130008411300084113000800000000FC
:1000F0000000000000000000000000000000000000
:0C01000000000000000000005FF808F1A3
:10010C0010B5054C237833B9044B13B10448AFF345
:10011C0000800123237010BD280000200000000087
:10012C00C029000808B5034B1BB103490348AFF3C2
:10013C00008008BD000000002C000020C029000831
:10014C0080B582B000AF0023FB7117E1FB79904AB8
:10015C00D35C022B00F0C680022B00F30C81002B29
:10016C0003D0012B00F0A68005E1FB79184600F0C6
:10017C0001FC0346002B00F0F980FB79844A012135
:10018C00D154FB79002B37D1824B1B680133814A48
:10019C001360804B1B68032B02DD7E4B00221A6020
:1001AC007C4B1B68002B03D17B4B00221A70DDE0CB
:1001BC0001224FF47C41794801F0E5FB754B1B683B
:1001CC00774AD35CFB70FB78012B04D1754B1B6811
:1001DC00754A1360CAE0FB78022B04D1734B1B6881
:1001EC00734A1360C2E0FB78032B40F0BF80714B65
:1001FC001B68714A1360B9E0FB79012B38D1654B50
:10020C001B68674AD35C3B713B79012B0DD1664B64
:10021C001B680133644A1360634B1B68642B40F00A
:10022C00A580614B01221A60A0E03B79022B0DD115
:10023C005F4B1B6801335E4A13605D4B1B68642B7C
:10024C0040F094805A4B01221A608FE03B79032BCB
:10025C0040F08C80584B1B680133574A1360564B47
:10026C001B68642B40F08280534B01221A607DE0A6
:10027C00FB79022B7AD1474B1B68494AD35C7B71C3
:10028C007B79012B04D1484B1B68464A13600EE066
:10029C007B79022B04D1464B1B68444A136006E061
:1002AC007B79032B03D1444B1B68424A136000F04B
:1002BC00D9F85BE0FB79184600F05CFB0346002B99
:1002CC0004D1FB79324A0021D15451E0FB79184614
:1002DC0000F06AFB0346002B4AD0FB792C4A022122
:1002EC00D15445E0FB79184600F044FB0346002B43
:1002FC0004D1FB79264A0021D1543BE0FB79012B38
:10030C0038D1244B1B68264AD35CBB71BB79012BBB
:10031C000CD1254B1B680133234A1360224B1B68FD
:10032C00642B27D1204B01221A6023E0BB79022BCE
:10033C000CD11F4B1B6801331D4A13601C4B1B68EF
:10034C00642B17D11A4B01221A6013E0BB79032BD3
:10035C0010D1194B1B680133174A1360164B1B68DD
:10036C00642B07D1144B01221A6003E000BF02E09A
:10037C0000BF00E000BFFB790133FB71FB79022B5E
:10038C007FF6E4AE00BF00BF0837BD4680BD00BF9E
:10039C00500000200400002044000020000C01400C
:1003AC000000002008000020540000200C00002059
:1003BC0058000020100000205C00002080B582B0A6
:1003CC0000AF234B1B68002B3EDB214B1B68214AE3
:1003DC00D35CFB711E4B1B6801333B603B68DBB28B
:1003EC00184600F035FDFB79032B2ED801A252F8EC
:1003FC0023F000BF110400081F040008310400089A
:10040C004304000800F05CF800F0B4F900F0D8F9EF
:10041C001BE0012000F0ECFC0F4B1B68184600F0B1
:10042C001BFA12E0022000F0E3FC0C4B1B68184690
:10043C0000F012FA09E0032000F0DAFC084B1B680C
:10044C00184600F009FA00E000BF0837BD4680BD31
:10045C000400002000000020540000205800002060
:10046C005C00002080B400AF104B1A68104B1B6866
:10047C009A420ADB0F4B00221A700C4B1A680C4B79
:10048C001B68D31A0C4A136009E00A4B01221A703C
:10049C00074B1A68054B1B68D31A074A1360074BA6
:1004AC0000221A7000BFBD4680BC704708000020B7
:1004BC0010000020600000200C00002044000020F0
:1004CC0080B500AFA34B1B78042B00F2418101A235
:1004DC0052F823F0F504000847050008E50500086C
:1004EC0087060008170700089A4B01221A709A4BCE
:1004FC001B684FF47A7202FB03F31946022000F0DA
:10050C0079FE4FF47A71012000F074FE924B1B6857
:10051C00924A1360924B1B78002B04D1914B1B68B1
:10052C00914A136006E08C4B1A68904B1B6813447D
:10053C008D4A136000F044F90AE100224FF40041A7
:10054C008B4801F020FA01224FF40051884801F049
:10055C001AFA01224FF48041854801F014FA002266
:10056C004FF48061824801F00EFA01224FF4805161
:10057C007F4801F008FA01224FF400617C4801F039
:10058C0002FA022000F056FE0346012B40F0D980FF
:10059C00704B02221A70754B1B684FF47A7202FB77
:1005AC0003F31946032000F025FE4FF47A71012065
:1005BC0000F020FE6D4B1B68684A1360684B1B787B
:1005CC00002B04D1694B1B68674A1360B9E0674B79
:1005DC001B68654A1360B4E000224FF48041644804
:1005EC0001F0D1F901224FF40041614801F0CBF93F
:1005FC0000224FF480615E4801F0C5F9032000F041
:10060C0019FE0346012B40F09E80524B03221A70B8
:10061C004FF47A71012000F0EDFD514B1B78002B4B
:10062C0012D14D4B1B684FF47A7202FB03F319463F
:10063C00042000F0DFFD4B4B1B68484A1360464B0F
:10064C001B68494A13607EE0464B1A68474B1B688F
:10065C00D31A4FF47A7202FB03F31946042000F00C
:10066C00C9FD404B1B683D4A13603E4B1A683F4B1B
:10067C001B68D31A3C4A136065E000224FF400510A
:10068C003B4801F080F901224FF48041384801F0D9
:10069C007AF900224FF48051354801F074F90122A7
:1006AC004FF48061324801F06EF901224FF4006181
:1006BC002F4801F068F9042000F0BCFD0346012B23
:1006CC0043D1244B04221A70284B1B684FF47A72C6
:1006DC0002FB03F31946052000F08CFD4FF47A71F0
:1006EC00012000F087FD214B1B681F4A13601C4B37
:1006FC001B78002B04D11D4B1B68184A136024E097
:10070C001A4B1B68154A13601FE000224FF400516E
:10071C00174801F038F900224FF40061144801F039
:10072C0032F901224FF48051114801F02CF90520C7
:10073C0000F080FD0346012B09D1064B00221A70F4
:10074C0005E000BF04E000BF02E000BF00E000BF16
:10075C0000BF80BD44000020100000204800002095
:10076C0060000020080000204C0000200C0000203D
:10077C00000C014080B500AF012000F05BFD03468A
:10078C00012B16D14FF47A71012000F033FD0A4B86
:10079C001B68002B04DD084B1B68013B064A1360E9
:1007AC00064B1B68002B04DD044B1B68013B034A02
:1007BC00136000BF80BD00BF480000204C0000202B
:1007CC0080B500AF214B1B68214A82FB03129210AB
:1007DC00DB17D31ADBB201221946002000F008F90E
:1007EC001A4B1A681A4B83FB02139910D317C91AA8
:1007FC000B469B000B445B00D11ACBB2012219466D
:10080C00012000F0F5F8134B1B68114A82FB031210
:10081C009210DB17D31ADBB201221946022000F02A
:10082C00E7F80C4B1A680A4B83FB02139910D31789
:10083C00C91A0B469B000B445B00D11ACBB20122A8
:10084C001946032000F0D4F800BF80BD48000020FA
:10085C00676666664C00002080B582B000AF786099
:10086C007B68114A82FB03129210DB17D31ADBB29E
:10087C0001221946002000F0BBF87A680A4B83FB72
:10088C0002139910D317C91A0B469B000B445B003B
:10089C00D11ACBB201221946012000F0A9F800BFF1
:1008AC000837BD4680BD00BF6766666690B583B0ED
:1008BC0000AF0023FB7146E0FA79FB792649895C8D
:1008CC00264AD154FB79264A32F81330FC79194662
:1008DC00244801F041F803461A461F4B1A55FB7980
:1008EC001D4AD25CFB791D49CB5C9A4205D1FA7941
:1008FC00FB791949895C1C4AD154FB791A4AD35C9F
:10090C00002B14D1FB79194A32F81330632B09D818
:10091C00FB79164A32F81320013291B2134A22F8AD
:10092C0013100DE0FB79124A0121D15408E0FB7938
:10093C000E4A002122F81310FB790D4A0021D154E4
:10094C00FB790133FB71FB79022BB5D900BF00BFDA
:10095C000C37BD4690BD00BF680000206C00002025
:10096C0014000020000801406400002074000020E6
:10097C007000002080B483B000AF0346FB71FB799C
:10098C00022B01D9002307E0FB79064AD35C002B2C
:10099C000CBF01230023DBB218460C37BD4680BCCC
:1009AC00704700BF6400002080B483B000AF0346E2
:1009BC00FB71FB79022B01D9FF2307E0FB79064A77
:1009CC00D35C012B0CBF01230023DBB218460C3780
:1009DC00BD4680BC704700BF7000002080B500AFE2
:1009EC000221024800F0E7FF00BF80BD0008014073
:1009FC0080B584B000AF78600B46FB701346BB70BB
:100A0C00FB78092B00F2EC81FB789F4AD35CFB73DB
:100A1C00BB78012B40F0F2807B68042B00F2E18163
:100A2C0001A252F823F000BF490A0008A10A0008ED
:100A3C00FF0A00085B0B0008B10B0008FB7B03F0FE
:100A4C000103DBB21A462021904800F09CFFFB7B8F
:100A5C005B10DBB203F00103DBB21A4640218B487A
:100A6C0000F091FFFB7B9B10DBB203F00103DBB2C8
:100A7C001A468021854800F086FFFB7BDB10DBB239
:100A8C0003F00103DBB21A464FF480717F4800F08B
:100A9C007AFFA6E1FB7B03F00103DBB21A464FF4AD
:100AAC0000717A4800F06FFFFB7B5B10DBB203F048
:100ABC000103DBB21A464FF48061744800F063FF07
:100ACC00FB7B9B10DBB203F00103DBB21A464FF445
:100ADC0000616E4800F057FFFB7BDB10DBB203F0CC
:100AEC000103DBB21A464FF48051684800F04BFF0B
:100AFC0077E1FB7B03F00103DBB21A464FF40051A4
:100B0C00624800F040FFFB7B5B10DBB203F001039B
:100B1C00DBB21A464FF480415C4800F034FFFB7B9B
:100B2C009B10DBB203F00103DBB21A464FF4004119
:100B3C00564800F028FFFB7BDB10DBB203F001030F
:100B4C00DBB21A460121524800F01DFF49E1FB7B44
:100B5C0003F00103DBB21A4602214D4800F013FFEB
:100B6C00FB7B5B10DBB203F00103DBB21A46042102
:100B7C00474800F008FFFB7B9B10DBB203F001033E
:100B8C00DBB21A460821424800F0FDFEFB7BDB106D
:100B9C00DBB203F00103DBB21A4610213C4800F033
:100BAC00F2FE1EE1FB7B03F00103DBB21A462021AF
:100BBC00374800F0E8FEFB7B5B10DBB203F001036F
:100BCC00DBB21A464021324800F0DDFEFB7B9B1065
:100BDC00DBB203F00103DBB21A4680212C4800F093
:100BEC00D2FEFB7BDB10DBB203F00103DBB21A4657
:100BFC004FF48071264800F0C6FEF2E07B68032BB0
:100C0C0000F2EF8001A252F823F000BF290C00087B
:100C1C00A10C0008130D0008830D0008FB7B03F0EA
:100C2C000103002B0CBF01230023DBB21A46202149
:100C3C00164800F0A8FEFB7B03F00203002B0CBF50
:100C4C0001230023DBB21A464021104800F09BFE22
:100C5C00FB7B03F00403002B0CBF01230023DBB24E
:100C6C001A468021094800F08EFEFB7B03F0080336
:100C7C00002B0CBF01230023DBB21A464FF480710A
:100C8C00024800F080FEACE0D829000800080140C2
:100C9C00000C0140FB7B03F00103002B0CBF012374
:100CAC000023DBB21A464FF400714F4800F06BFE84
:100CBC00FB7B03F00203002B0CBF01230023DBB2F0
:100CCC001A464FF48061484800F05DFEFB7B03F050
:100CDC000403002B0CBF01230023DBB21A464FF494
:100CEC000061414800F04FFEFB7B03F00803002B32
:100CFC000CBF01230023DBB21A464FF480513A4853
:100D0C0000F041FE6DE0FB7B03F00103002B0CBFF8
:100D1C0001230023DBB21A464FF40051324800F095
:100D2C0032FEFB7B03F00203002B0CBF01230023DC
:100D3C00DBB21A464FF480412B4800F024FEFB7BBB
:100D4C0003F00403002B0CBF01230023DBB21A4673
:100D5C004FF40041244800F016FEFB7B03F008031F
:100D6C00002B0CBF01230023DBB21A4601211F48C4
:100D7C0000F009FE35E0FB7B03F00103002B0CBFF8
:100D8C0001230023DBB21A460221184800F0FBFDB8
:100D9C00FB7B03F00203002B0CBF01230023DBB20F
:100DAC001A460421114800F0EEFDFB7B03F004030E
:100DBC00002B0CBF01230023DBB21A4608210B4881
:100DCC0000F0E1FDFB7B03F00803002B0CBF0123BB
:100DDC000023DBB21A461021044800F0D4FD00E0D9
:100DEC0000BF1037BD4680BD00080140000C01401B
:100DFC0080B582B000AF0346FB71072000F01AFAF1
:100E0C000346012B1ED1FB79012B05D14FF4105158
:100E1C000E4800F0D0FD10E0FB79022B05D14FF409
:100E2C0090410A4800F0C7FD07E0FB79032B04D181
:100E3C004FF41041054800F0BEFD4FF4FA71072045
:100E4C0000F0D8F900BF0837BD4680BD000C01404A
:100E5C0080B582B000AF0346FB71FB79002B09D043
:100E6C00FB79042B06D8FB79012219460420FFF7E5
:100E7C00BFFD00E000BF0837BD4680BD80B500AFA8
:100E8C0000F05AFA00F028F800F0AEF800F060F824
:100E9C00642000F0B3FA0F4801F0D4F94FF47A71E2
:100EAC00002000F0A7F94FF4FA71072000F0A2F926
:100EBC00002000F0BFF90346012B06D14FF47A71E4
:100ECC00002000F097F9FFF789FDFFF739F9FFF7DC
:100EDC0075FAEDE77C00002080B590B000AF07F10B
:100EEC00180328220021184601F038FD3B1D002272
:100EFC001A605A609A60DA601A610223BB6101239E
:100F0C00BB621023FB6200237B6307F118031846B6
:100F1C0000F06AFD0346002B01D000F0D3F80F233C
:100F2C007B600023BB600023FB6000233B6100233C
:100F3C007B613B1D0021184600F0D8FF0346002BB7
:100F4C0001D000F0BFF800BF4037BD4680BD0000A7
:100F5C0080B586B000AF07F1080300221A605A6012
:100F6C009A60DA603B4600221A605A601D4B4FF0C3
:100F7C0080421A601B4B41F63F725A60194B00229B
:100F8C009A60184B0922DA60164B00221A61154B35
:100F9C0000229A61134801F005F90346002B01D099
:100FAC0000F090F84FF48053BB6007F1080319462A
:100FBC000C4801F083FA0346002B01D000F082F8B4
:100FCC0000233B6000237B603B461946054801F03B
:100FDC005BFC0346002B01D000F074F800BF1837FF
:100FEC00BD4680BD7C00002080B586B000AF07F107
:100FFC00080300221A605A609A60DA602E4B9B69D3
:10100C002D4A43F0040393612B4B9B6903F00403BB
:10101C007B607B68284B9B69274A43F008039361EC
:10102C00254B9B6903F008033B603B6801220221BE
:10103C00224800F0A8FC00224FF6E0711F4800F097
:10104C00A2FC002240F2FF111D4800F09CFC012282
:10105C004FF47C411A4800F096FC4FF6E273BB60EB
:10106C000123FB6000233B6102237B6107F1080332
:10107C001946124800F0F4FA1C23BB600023FB60F5
:10108C0001233B6107F1080319460C4800F0E8FA0C
:10109C004FF6FF53BB600123FB6000233B6102232F
:1010AC007B6107F108031946054800F0D9FA00BF27
:1010BC001837BD4680BD00BF00100240000801403B
:1010CC00000C014080B400AF72B600BF00BFFDE75A
:1010DC0080B485B000AF154B9B69144A43F00103F3
:1010EC009361124B9B6903F00103BB60BB680F4B10
:1010FC00DB690E4A43F08053D3610C4BDB6903F080
:10110C0080537B607B680A4B5B68FB60FB6823F059
:10111C00E063FB60FB6843F08063FB60044AFB68A0
:10112C00536000BF1437BD4680BC704700100240AE
:10113C000000014080B584B000AF78607B681B680C
:10114C00B3F1804F13D10C4BDB690B4A43F0010315
:10115C00D361094BDB6903F00103FB60FB680022E0
:10116C0000211C2000F045FA1C2000F05EFA00BFA4
:10117C001037BD4680BD00BF0010024080B400AFE8
:10118C0000BFFDE780B400AF00BFFDE780B400AF47
:10119C0000BFFDE780B400AF00BFFDE780B400AF37
:1011AC0000BFFDE780B400AF00BFBD4680BC7047F8
:1011BC0080B400AF00BFBD4680BC704780B400AFA8
:1011CC0000BFBD4680BC704780B500AF00F0FAF898
:1011DC0000BF80BD80B500AF024801F07FF800BFB2
:1011EC0080BD00BF7C00002080B400AF00BFBD46B6
:1011FC0080BC704780B483B000AF786039603B68C6
:10120C00094A82FB03129210DB17D21A07497B683A
:10121C0041F82320064A7B68002142F8231000BFC6
:10122C000C37BD4680BC704767666666C4000020FC
:10123C00EC00002080B483B000AF7860094A7B6872
:10124C0052F82330012B06D1064A7B68002142F864
:10125C002310012300E0002318460C37BD4680BC48
:10126C00704700BFEC00002080B483B000AF0023B7
:10127C007B601CE0124A7B6852F82330002B13DD94
:10128C000F4A7B6852F823305A1E0D497B6841F88F
:10129C0023200B4A7B6852F82330002B04D1094AD7
:1012AC007B68012142F823107B6801337B607B68EB
:1012BC00092BDFDD00BF00BF0C37BD4680BC70477B
:1012CC00C4000020EC00002080B582B000AF786034
:1012DC007B681B68B3F1804F03D1FFF7C5FFFFF7A5
:1012EC00E5FA00BF0837BD4680BD0000FFF77CFF64
:1012FC000B480C490C4A002302E0D458C450043368
:10130C00C4188C42F9D3094A094C002301E013603C
:10131C000432A242FBD301F029FBFFF7AFFD70476B
:10132C000000002028000020102A000828000020BF
:10133C0018010020FEE7000080B500AF084B1B68C9
:10134C00074A43F010031360032000F047F90F2005
:10135C0000F008F8FFF7BCFE0023184680BD00BF64
:10136C000020024080B582B000AF7860124B1A6842
:10137C00124B1B7819464FF47A73B3FBF1F3B2FBA3
:10138C00F3F3184600F05FF90346002B01D001235C
:10139C000EE07B680F2B0AD8002279684FF0FF30E3
:1013AC0000F027F9064A7B681360002300E0012354
:1013BC0018460837BD4680BD1C00002024000020C4
:1013CC002000002080B400AF054B1B781A46054B5B
:1013DC001B681344034A136000BFBD4680BC7047B2
:1013EC00240000201401002080B400AF024B1B68C5
:1013FC001846BD4680BC70471401002080B584B0EF
:10140C0000AF7860FFF7F0FFB8607B68FB60FB68AB
:10141C00B3F1FF3F05D00A4B1B781A46FB68134407
:10142C00FB6000BFFFF7E0FF0246BB68D31AFA6807
:10143C009A42F7D800BF00BF1037BD4680BD00BF31
:10144C002400002080B485B000AF78607B6803F086
:10145C000703FB600C4BDB68BB60BA684FF6FF03FD
:10146C001340BB60FB681A02BB68134343F0BF63B5
:10147C0043F40033BB60044ABB68D36000BF14372D
:10148C00BD4680BC704700BF00ED00E080B400AFEB
:10149C00044BDB681B0A03F007031846BD4680BCEF
:1014AC00704700BF00ED00E080B483B000AF03468E
:1014BC00FB7197F90730002B0BDBFB7903F01F0254
:1014CC00064997F907305B09012000FA02F241F84E
:1014DC00232000BF0C37BD4680BC704700E100E004
:1014EC0080B483B000AF03463960FB7197F90730C5
:1014FC00002B0ADB3B68DAB20C4997F90730120172
:10150C00D2B20B4483F800230AE03B68DAB20849F4
:10151C00FB7903F00F03043B1201D2B20B441A7691
:10152C0000BF0C37BD4680BC704700BF00E100E037
:10153C0000ED00E080B489B000AFF860B9607A606B
:10154C00FB6803F00703FB61FB69C3F10703042B82
:10155C0028BF0423BB61FB690433062B02D9FB694A
:10156C00033B00E000237B614FF0FF32BB6902FAC2
:10157C0003F3DA43BB681A407B699A404FF0FF31A2
:10158C007B6901FA03F3D9437B680B40134318467C
:10159C002437BD4680BC704780B582B000AF786000
:1015AC007B68013BB3F1807F01D301230FE00A4A32
:1015BC007B68013B53600F214FF0FF30FFF790FF2A
:1015CC00054B00229A60044B07221A600023184630
:1015DC000837BD4680BD00BF10E000E080B582B08A
:1015EC0000AF78607868FFF72DFF00BF0837BD4665
:1015FC0080BD80B586B000AF0346B9607A60FB73DE
:10160C0000237B61FFF742FF78617A68B9687869DB
:10161C00FFF790FF024697F90F3011461846FFF777
:10162C005FFF00BF1837BD4680BD80B582B000AFEC
:10163C000346FB7197F907301846FFF735FF00BFDB
:10164C000837BD4680BD80B582B000AF7860786841
:10165C00FFF7A2FF034618460837BD4680BD0000C1
:10166C0080B48BB000AF7860396000237B620023BC
:10167C003B6261E101227B6A02FA03F3FB613B6886
:10168C001B68FA691340BB61BA69FB699A4240F066
:10169C0050813B685B68974A93425ED0954A93426F
:1016AC0075D8954A934258D0934A93426FD8934A2F
:1016BC00934252D0914A934269D8914A93424CD06A
:1016CC008F4A934263D88F4A934246D08D4A9342B5
:1016DC005DD8122B2AD8122B59D801A252F823F01C
:1016EC0067170008411700085317000895170008E2
:1016FC009B1700089B1700089B1700089B170008F6
:10170C009B1700089B1700089B1700089B170008E5
:10171C009B1700089B1700089B1700089B170008D5
:10172C009B170008491700085D170008764A93427A
:10173C0013D02CE03B68DB683B6229E03B68DB683C
:10174C0004333B6224E03B68DB6808333B621FE0F8
:10175C003B68DB680C333B621AE03B689B68002BF0
:10176C0002D104233B6213E03B689B68012B05D13B
:10177C0008233B627B68FA691A6109E008233B6223
:10178C007B68FA695A6103E000233B6200E000BF0A
:10179C00BB69FF2B01D87B6801E07B6804337B615C
:1017AC00BB69FF2B02D87B6A9B0002E07B6A083B7B
:1017BC009B003B617B691A680F213B6901FA03F3BB
:1017CC00DB431A40396A3B6901FA03F31A437B691C
:1017DC001A603B685B6803F08053002B00F0A98013
:1017EC004A4B9B69494A43F001039361474B9B6900
:1017FC0003F00103BB60BB68454A7B6A9B0802335C
:10180C0052F82330FB607B6A03F003039B000F222A
:10181C0002FA03F3DB43FA681340FB607B683D4A32
:10182C0093420DD07B683C4A934207D07B683B4A7D
:10183C00934201D1022304E0032302E0012300E0E0
:10184C0000237A6A02F0030292009340FA68134371
:10185C00FB602F497B6A9B080233FA6841F823200E
:10186C003B685B6803F48013002B06D02C4B9A6802
:10187C002B49BB6913438B6006E0294B9A68BB6903
:10188C00DB43274913408B603B685B6803F4001310
:10189C00002B06D0224BDA682149BB691343CB607D
:1018AC0006E01F4BDA68BB69DB431D491340CB6074
:1018BC003B685B6803F40033002B06D0184B5A6866
:1018CC001749BB6913434B6006E0154B5A68BB695B
:1018DC00DB43134913404B603B685B6803F4803374
:1018EC00002B1FD00E4B1A680D49BB6913430B60BC
:1018FC001FE000BF00003210000031100000221069
:10190C000000211000001210000011100010024005
:10191C000000014000080140000C01400010014093
:10192C00000401400B4B1A68BB69DB4309491340A7
:10193C000B607B6A01337B623B681A687B6A22FA14
:10194C0003F3002B7FF496AE00BF00BF2C37BD46CF
:10195C0080BC70470004014080B485B000AF786053
:10196C000B467B807B689A687B881340002B02D0E7
:10197C000123FB7301E00023FB73FB7B1846143738
:10198C00BD4680BC704780B483B000AF78600B4616
:10199C007B8013467B707B78002B03D07A887B6826
:1019AC001A6103E07B881A047B681A6100BF0C374C
:1019BC00BD4680BC704780B485B000AF78600B46E4
:1019CC007B807B68DB68FB607A88FB6813401A04B9
:1019DC00FB68D9437B880B401A437B681A6100BFB4
:1019EC001437BD4680BC704780B586B000AF7860B8
:1019FC007B68002B01D1012372E27B681B6803F02A
:101A0C000103002B00F08780924B5B6803F00C0302
:101A1C00042B0CD08F4B5B6803F00C03082B12D1FA
:101A2C008C4B5B6803F48033B3F5803F0BD1894B4F
:101A3C001B6803F40033002B6CD07B685B68002BB5
:101A4C0068D101234CE27B685B68B3F5803F06D11B
:101A5C00804B1B687F4A43F4803313602EE07B6815
:101A6C005B68002B0CD17B4B1B687A4A23F48033C8
:101A7C001360784B1B68774A23F4802313601DE0B6
:101A8C007B685B68B3F5A02F0CD1724B1B68714A55
:101A9C0043F4802313606F4B1B686E4A43F480330E
:101AAC0013600BE06B4B1B686A4A23F480331360A2
:101ABC00684B1B68674A23F4802313607B685B6860
:101ACC00002B13D0FFF790FC386108E0FFF78CFC7B
:101ADC0002463B69D31A642B01D9032300E25D4B08
:101AEC001B6803F40033002BF0D014E0FFF77CFCF0
:101AFC00386108E0FFF778FC02463B69D31A642B87
:101B0C0001D90323ECE1534B1B6803F40033002B86
:101B1C00F0D100E000BF7B681B6803F00203002BD0
:101B2C0063D04C4B5B6803F00C03002B0BD0494B80
:101B3C005B6803F00C03082B1CD1464B5B6803F469
:101B4C008033002B16D1434B1B6803F00203002B90
:101B5C0005D07B681B69012B01D00123C0E13D4BF3
:101B6C001B6823F0F8027B685B69DB00394913437F
:101B7C000B603AE07B681B69002B20D0364B0122AE
:101B8C001A60FFF731FC386108E0FFF72DFC0246C4
:101B9C003B69D31A022B01D90323A1E12D4B1B68FE
:101BAC0003F00203002BF0D02A4B1B6823F0F80241
:101BBC007B685B69DB00274913430B6015E0264B00
:101BCC0000221A60FFF710FC386108E0FFF70CFCEC
:101BDC0002463B69D31A022B01D9032380E11D4B2A
:101BEC001B6803F00203002BF0D17B681B6803F029
:101BFC000803002B3AD07B689B69002B19D0174B3C
:101C0C0001221A60FFF7F0FB386108E0FFF7ECFBEC
:101C1C0002463B69D31A022B01D9032360E10D4B19
:101C2C005B6A03F00203002BF0D0012000F09CFA59
:101C3C001CE00A4B00221A60FFF7D6FB38610FE05C
:101C4C00FFF7D2FB02463B69D31A022B08D90323B8
:101C5C0046E100BF001002400000424280044242B4
:101C6C00924B5B6A03F00203002BE9D17B681B6883
:101C7C0003F00403002B00F0A6800023FB758B4BB4
:101C8C00DB6903F08053002B0DD1884BDB69874A4D
:101C9C0043F08053D361854BDB6903F08053BB6009
:101CAC00BB680123FB75824B1B6803F48073002B0C
:101CBC0018D17F4B1B687E4A43F480731360FFF787
:101CCC0093FB386108E0FFF78FFB02463B69D31AA0
:101CDC00642B01D9032303E1754B1B6803F4807358
:101CEC00002BF0D07B68DB68012B06D16F4B1B6A95
:101CFC006E4A43F0010313622DE07B68DB68002B16
:101D0C000CD16A4B1B6A694A23F001031362674BBF
:101D1C001B6A664A23F0040313621CE07B68DB68D1
:101D2C00052B0CD1614B1B6A604A43F00403136210
:101D3C005E4B1B6A5D4A43F0010313620BE05B4B85
:101D4C001B6A5A4A23F001031362584B1B6A574A09
:101D5C0023F0040313627B68DB68002B15D0FFF7BC
:101D6C0043FB38610AE0FFF73FFB02463B69D31A9D
:101D7C0041F28832934201D90323B1E04B4B1B6AE9
:101D8C0003F00203002BEED014E0FFF72DFB3861BB
:101D9C000AE0FFF729FB02463B69D31A41F288326D
:101DAC00934201D903239BE0404B1B6A03F00203CF
:101DBC00002BEED1FB7D012B05D13C4BDB693B4A63
:101DCC0023F08053D3617B68DB69002B00F08780A4
:101DDC00364B5B6803F00C03082B61D07B68DB6926
:101DEC00022B46D1334B00221A60FFF7FDFA386103
:101DFC0008E0FFF7F9FA02463B69D31A022B01D926
:101E0C0003236DE0294B1B6803F00073002BF0D10A
:101E1C007B681B6AB3F5803F08D1244B5B6823F4C5
:101E2C0000327B689B68214913434B601F4B5B68F6
:101E3C0023F474127B68196A7B685B6A0B431B4939
:101E4C0013434B601B4B01221A60FFF7CDFA38612C
:101E5C0008E0FFF7C9FA02463B69D31A022B01D9F5
:101E6C0003233DE0114B1B6803F00073002BF0D0F3
:101E7C0035E0104B00221A60FFF7B6FA386108E023
:101E8C00FFF7B2FA02463B69D31A022B01D903239E
:101E9C0026E0064B1B6803F00073002BF0D11EE00C
:101EAC007B68DB69012B07D1012319E0001002408C
:101EBC0000700040600042420B4B5B68FB60FB68AB
:101ECC0003F480327B681B6A9A4206D1FB6803F4E8
:101EDC0070127B685B6A9A4201D0012300E00023F8
:101EEC0018461837BD4680BD0010024080B584B03E
:101EFC0000AF786039607B68002B01D10123D0E002
:101F0C006A4B1B6803F007033A689A4210D9674B77
:101F1C001B6823F0070265493B6813430B60634B56
:101F2C001B6803F007033A689A4201D00123B8E01A
:101F3C007B681B6803F00203002B20D07B681B68B6
:101F4C0003F00403002B05D0594B5B68584A43F44B
:101F5C00E06353607B681B6803F00803002B05D01B
:101F6C00534B5B68524A43F460535360504B5B686D
:101F7C0023F0F0027B689B684D4913434B607B68F0
:101F8C001B6803F00103002B40D07B685B68012BBE
:101F9C0007D1474B1B6803F40033002B15D10123E9
:101FAC007FE07B685B68022B07D1414B1B6803F019
:101FBC000073002B09D1012373E03D4B1B6803F028
:101FCC000203002B01D101236BE0394B5B6823F03A
:101FDC0003027B685B68364913434B60FFF704FAD6
:101FEC00F8600AE0FFF700FA0246FB68D31A41F2E8
:101FFC008832934201D9032353E02D4B5B6803F0E5
:10200C000C027B685B689B009A42EBD1274B1B68E8
:10201C0003F007033A689A4210D2244B1B6823F052
:10202C00070222493B6813430B60204B1B6803F0EB
:10203C0007033A689A4201D0012332E07B681B689F
:10204C0003F00403002B08D0194B5B6823F4E06207
:10205C007B68DB68164913434B607B681B6803F095
:10206C000803002B09D0124B5B6823F460527B6889
:10207C001B69DB000E4913434B6000F021F802464C
:10208C000B4B5B681B0903F00F030A49CB5C22FA6C
:10209C0003F3094A1360094B1B681846FFF762F9F2
:1020AC00002318461037BD4680BD00BF00200240FB
:1020BC0000100240E42900081C0000202000002031
:1020CC0080B487B000AF0023FB600023BB6000230B
:1020DC007B6100237B6000233B611E4B5B68FB60D4
:1020EC00FB6803F00C03042B02D0082B03D027E071
:1020FC00194B3B6127E0FB689B0C03F00F03174A5D
:10210C00D35C7B60FB6803F48033002B10D0114B45
:10211C005B685B0C03F00103114AD35CBB607B680A
:10212C000D4A03FB02F2BB68B2FBF3F37B6104E0E4
:10213C007B680C4A02FB03F37B617B693B6102E029
:10214C00054B3B6100BF3B6918461C37BD4680BC44
:10215C00704700BF0010024000127A00F4290008FA
:10216C00042A000800093D0080B485B000AF7860F7
:10217C000A4B1B680A4AA2FB03235B0A7A6802FB20
:10218C0003F3FB6000BFFB685A1EFA60002BF9D109
:10219C0000BF00BF1437BD4680BC70471C00002038
:1021AC00D34D621080B582B000AF78607B68002B95
:1021BC0001D1012341E07B6893F83D30DBB2002B69
:1021CC0006D17B68002283F83C207868FEF7B2FFCA
:1021DC007B68022283F83D207B681A687B68043395
:1021EC001946104600F056FA7B68012283F8462007
:1021FC007B68012283F83E207B68012283F83F2014
:10220C007B68012283F840207B68012283F84120FF
:10221C007B68012283F842207B68012283F84320EB
:10222C007B68012283F844207B68012283F84520D7
:10223C007B68012283F83D20002318460837BD46F1
:10224C0080BD000080B485B000AF78607B6893F8E7
:10225C003D30DBB2012B01D0012335E07B6802223B
:10226C0083F83D207B681B68DA687B681B6842F04A
:10227C000102DA607B681B68164A934209D07B68BE
:10228C001B68B3F1804F04D07B681B68124A9342E1
:10229C0011D17B681B689B6803F00703FB60FB682C
:1022AC00062B10D07B681B681A687B681B6842F091
:1022BC0001021A6007E07B681B681A687B681B6860
:1022CC0042F001021A60002318461437BD4680BC48
:1022DC00704700BF002C01400004004080B584B062
:1022EC0000AF78607B681B68DB68FB607B681B68F1
:1022FC001B69BB60BB6803F00203002B20D0FB689A
:10230C0003F00203002B1BD07B681B686FF00202EA
:10231C001A617B6801221A777B681B689B6903F042
:10232C000303002B03D0786800F098F905E0786877
:10233C0000F08BF9786800F09AF97B6800221A7724
:10234C00BB6803F00403002B20D0FB6803F00403EC
:10235C00002B1BD07B681B686FF004021A617B6832
:10236C0002221A777B681B689B6903F44073002B6D
:10237C0003D0786800F072F905E0786800F065F930
:10238C00786800F074F97B6800221A77BB6803F058
:10239C000803002B20D0FB6803F00803002B1BD094
:1023AC007B681B686FF008021A617B6804221A773D
:1023BC007B681B68DB6903F00303002B03D0786890
:1023CC0000F04CF905E0786800F03FF9786800F00F
:1023DC004EF97B6800221A77BB6803F01003002BC0
:1023EC0020D0FB6803F01003002B1BD07B681B680C
:1023FC006FF010021A617B6808221A777B681B68E1
:10240C00DB6903F44073002B03D0786800F026F9E5
:10241C0005E0786800F019F9786800F028F97B6815
:10242C0000221A77BB6803F00103002B0CD0FB6869
:10243C0003F00103002B07D07B681B686FF00102CF
:10244C001A617868FEF740FFBB6803F08003002B2D
:10245C000CD0FB6803F08003002B07D07B681B6853
:10246C006FF080021A61786800F06FFABB6803F0B5
:10247C004003002B0CD0FB6803F04003002B07D06B
:10248C007B681B686FF040021A61786800F0F8F8FE
:10249C00BB6803F02003002B0CD0FB6803F0200377
:1024AC00002B07D07B681B686FF020021A617868DC
:1024BC0000F042FA00BF1037BD4680BD80B584B035
:1024CC0000AF786039600023FB737B6893F83C3075
:1024DC00012B01D10223B4E07B68012283F83C205C
:1024EC007B68022283F83D207B681B689B68BB607D
:1024FC00BB6823F07703BB60BB6823F47F43BB60EE
:10250C007B681B68BA689A603B681B68B3F5005F10
:10251C003ED0B3F5005F00F28780B3F5805F00F02A
:10252C008680B3F5805F7FD8702B1AD0702B7BD848
:10253C00602B50D0602B77D8502B3CD0502B73D8BD
:10254C00402B58D0402B6FD8302B64D0302B6BD80D
:10255C00202B60D0202B67D8002B5CD0102B5AD0AE
:10256C0062E07B6818683B6899683B685A683B680E
:10257C00DB6800F06AF97B681B689B68BB60BB6812
:10258C0043F07703BB607B681B68BA689A604FE0C6
:10259C007B6818683B6899683B685A683B68DB68DD
:1025AC0000F053F97B681B689A687B681B6842F4DF
:1025BC0080429A603CE07B6818683B6859683B68CD
:1025CC00DB681A4600F0CAF87B681B685021184675
:1025DC0000F021F92CE07B6818683B6859683B686F
:1025EC00DB681A4600F0E8F87B681B686021184627
:1025FC0000F011F91CE07B6818683B6859683B686F
:10260C00DB681A4600F0AAF87B681B684021184664
:10261C0000F001F90CE07B681A683B681B681946EE
:10262C00104600F0F8F803E00123FB7300E000BF54
:10263C007B68012283F83D207B68002283F83C20D4
:10264C00FB7B18461037BD4680BD80B483B000AF0D
:10265C00786000BF0C37BD4680BC704780B483B037
:10266C0000AF786000BF0C37BD4680BC704780B4AB
:10267C0083B000AF786000BF0C37BD4680BC70479C
:10268C0080B483B000AF786000BF0C37BD4680BC0F
:10269C007047000080B485B000AF786039607B680B
:1026AC001B68FB607B682B4A934207D07B68B3F1B5
:1026BC00804F03D07B68284A934208D1FB6823F0F3
:1026CC007003FB603B685B68FA681343FB607B68D4
:1026DC00204A934207D07B68B3F1804F03D07B68CC
:1026EC001D4A934208D1FB6823F44073FB603B689E
:1026FC00DB68FA681343FB60FB6823F080023B68DD
:10270C005B691343FB607B68FA681A603B689A68E4
:10271C007B68DA623B681A687B689A627B680D4A50
:10272C00934203D13B681A697B681A637B68012268
:10273C005A617B681B6903F00103002B05D07B6891
:10274C001B6923F001027B681A6100BF1437BD4678
:10275C0080BC7047002C01400004004080B487B05E
:10276C0000AFF860B9607A60FB681B6A7B61FB683C
:10277C001B6A23F00102FB681A62FB689B693B61D0
:10278C003B6923F0F0033B617B681B013A691343FF
:10279C003B617B6923F00A037B617A69BB68134355
:1027AC007B61FB683A699A61FB687A691A6200BFBF
:1027BC001C37BD4680BC704780B487B000AFF86052
:1027CC00B9607A60FB681B6A7B61FB681B6A23F04B
:1027DC001002FB681A62FB689B693B613B6923F43E
:1027EC0070433B617B681B033A6913433B617B6914
:1027FC0023F0A0037B61BB681B017A6913437B61E7
:10280C00FB683A699A61FB687A691A6200BF1C37E7
:10281C00BD4680BC704780B485B000AF786039602D
:10282C007B689B68FB60FB6823F07003FB603A6875
:10283C00FB68134343F00703FB607B68FA689A60FC
:10284C0000BF1437BD4680BC704780B487B000AF62
:10285C00F860B9607A603B60FB689B687B617B6960
:10286C0023F47F437B613B681A027B681A43BB6885
:10287C0013437A6913437B61FB687A699A6000BFE2
:10288C001C37BD4680BC704780B485B000AF786003
:10289C0039607B6893F83C30012B01D1022341E075
:1028AC007B68012283F83C207B68022283F83D2060
:1028BC007B681B685B68FB607B681B689B68BB6004
:1028CC00FB6823F07003FB603B681B68FA681343DA
:1028DC00FB607B681B68FA685A607B681B68144A4B
:1028EC00934209D07B681B68B3F1804F04D07B689E
:1028FC001B68104A93420CD1BB6823F08003BB6069
:10290C003B685B68BA681343BB607B681B68BA683A
:10291C009A607B68012283F83D207B68002283F853
:10292C003C20002318461437BD4680BC704700BFBE
:10293C00002C01400004004080B483B000AF7860EC
:10294C0000BF0C37BD4680BC704780B483B000AF6D
:10295C00786000BF0C37BD4680BC7047034602440C
:10296C00934200D1704703F8011BF9E770B50026BC
:10297C000C4D0D4C641BA410A64209D100F01AF8A2
:10298C0000260A4D0A4C641BA410A64205D170BD4A
:10299C0055F8043B98470136EEE755F8043B984749
:1029AC000136F2E7082A0008082A0008082A00085D
:1029BC000C2A0008F8B500BFF8BC08BC9E4670474E
:0C29CC00F8B500BFF8BC08BC9E46704780
:1029D80000010203040506070809000000000000C2
:1029E80000000000010203040607080902030405A9
:1029F800060708090A0B0C0D0E0F10100102000043
:042A08003101000890
:042A0C000D010008B0
:102A100000010203FFFFFFFF0500000002000000AD
:102A200003000000040008001000000000127A00FB
:082A300010000000010000008D
:04000005080012F9E4
:00000001FF
